:1000000071EF03F0F76A140FF66E000EF722090085
:10001000F55012000D7C0C7C0B7C0A7C097C087C62
:100020001F7C1E7C1D7C1C7C157C147C1B7C1A7C1C
:10003000197C187C1450070B006E1430016E0132CD
:1000400001321F0E011601501624E96E000E172012
:10005000EA6E016A012A002A01D00136002EFDD77E
:10006000155203E00150EF1203D0011E0150EF16AC
:10007000000C125202E1899201D08982929294EF8F
:1000800000F0125202E1899601D08986929696EF8D
:1000900000F0125202E1899A01D0898A929A98EF6F
:1000A00000F0125202E18B9601D08B8694969AEF63
:1000B00000F0125202E18B9201D08B829492000CDC
:1000C000125202E18B9401D08B849494000C106A3C
:1000D000010E0F6E116A116A11500F0823E3D890B8
:1000E0001134036AF2CF12F0F29E8CDF0900F5CFD3
:1000F00003F012BEF28E126E03C013F0146E156A76
:100100000F0E176E890E166E95DF12C014F0156A69
:100110000F0E176E920E166E8DDFD8900F361036BA
:10012000112ADAD7126AA5D7126AABD7126AB1D7E9
:10013000126AB7D7126ABDDF126AC2DF8DEF01F013
:10014000EA6A100EE96EEF500DE00A0E016E006AC9
:10015000002EFED7012EFBD75F0E006E002EFED7BD
:10016000EF2EF3D7000C700ED36E400E9B6ED35063
:10017000010E926EC00E936E946E000E956EF2CFCD
:100180000FF0F29EAA6AA96AA69CA69EA680A85015
:100190000FBEF28E0108D8B47ED0AA6AA96A010EF9
:1001A000A86EA69CA69EA684F250006EF29E0F0139
:1001B000550EA76EAA0EA76EA682A6B2FED7A6946B
:1001C0000050F212AA6A010EA96E0A0EA86EA69C31
:1001D000A69EA684F2CF00F0F29E550EA76EAA0E40
:1001E000A76EA682A6B2FED7A6940050F212AA6A03
:1001F000020EA96E3C0EA86EA69CA69EA684F2CF07
:1002000000F0F29E550EA76EAA0EA76EA682A6B2A9
:10021000FED7A6940050F212AA6A030EA96E010E30
:10022000A86EA69CA69EA684F2CF00F0F29E550E64
:10023000A76EAA0EA76EA682A6B2FED7A6940050FD
:10024000F212AA6A040EA96EA86AA69CA69EA684AB
:10025000F2CF00F0F29E550EA76EAA0EA76EA682F0
:10026000A6B2FED7A6940050F212AA6A050EA96E95
:10027000180EA86EA69CA69EA684F2CF00F0F29E51
:10028000550EA76EAA0EA76EA682A6B2FED7A6949A
:100290000050F2120001F2CF0FF0F29EAA6A010E96
:1002A000A96EA69CA69EA680A8500FBEF28E0A6ECE
:1002B000F2CF0FF0F29EAA6A020EA96EA69CA69E2D
:1002C000A680A8500FBEF28E086EF2CF0FF0F29EFD
:1002D000AA6A030EA96EA69CA69EA680A8500FBE71
:1002E000F28E0B6EF2CF0FF0F29EAA6A040EA96E88
:1002F000A69CA69EA680A8500FBEF28E0C6EF2CFD2
:100300000FF0F29EAA6A050EA96EA69CA69EA68074
:10031000A8500FBEF28E096EDAD6040E0F6EFA0EDA
:10032000106E0EDF0F2EFBD793EF03F0020E0F5E61
:100330000BE3EA6A0F0EE96EEF5006E003D000D03F
:1003400000D00000EF2EFBD7B9EF01F0C050C00B7A
:100350000709C06EC08EC280C150C00B0E09C16EAD
:10036000000E016EC250C30B0110C26E640E0F6E00
:10037000DDD7A3EF03F09EA8FED7AD6E000C13509F
:10038000016A125C03E212C000F00CD0006A080E91
:10039000146E123600361350005CD8B0006E013671
:1003A000142EF7D7000C015010C012F0640E136E1B
:1003B000E6DF00C010F00150300E07E111A20DD0B1
:1003C00011B60BD011B8200E03D0119611981180E0
:1003D000012601509EA8FED7AD6E10C012F00A0E85
:1003E000136ECDDF00C010F00150300E06E111B6E3
:1003F00009D011A007D011B8200E012601509EA8E7
:10040000FED7AD6E300E102610509EA8FED7AD6EF2
:10041000000C3A0E9EA8FED7AD6E0AC010F01B0E5F
:10042000116EC1DF3A0E9EA8FED7AD6E08C010F067
:100430001B0E116EB8DF3A0E9EA8FED7AD6E0BC034
:1004400010F01B0E116EAFDF3A0E9EA8FED7AD6EF8
:100450000CC010F01B0E116EA6DF3A0E9EA8FED740
:10046000AD6E09C010F01B0E116E9DDFE0EF02F0C3
:100470009EAAB3D09EAAFED7AECF0FF00F50690848
:10048000D8A49AD0690E77DF9EBAFED79EAAFED76F
:10049000AECF0AF09EAAFED7AECF08F09EAAFED736
:1004A000AECF0BF09EAAFED7AECF09F0660E63DF8B
:1004B000AA6AA96A010EA86EA69CA69EA684F250FE
:1004C000006EF29E0F01550EA76EAA0EA76EA682B1
:1004D000A6B2FED7A6940050F2120A500A0802E211
:1004E0000A0E0A6EAA6A010EA96E0AC0A8FFA69C8F
:1004F000A69EA684F2CF00F0F29E550EA76EAA0E1D
:10050000A76EA682A6B2FED7A6940050F212AA6ADF
:10051000020EA96E08C0A8FFA69CA69EA684F2CFD4
:1005200000F0F29E550EA76EAA0EA76EA682A6B286
:10053000FED7A6940050F212AA6A030EA96E0BC051
:10054000A8FFA69CA69EA684F2CF00F0F29E550EB0
:10055000A76EAA0EA76EA682A6B2FED7A6940050DA
:10056000F212AA6A040EA96EA86AA69CA69EA68488
:10057000F2CF00F0F29E550EA76EAA0EA76EA682CD
:10058000A6B2FED7A6940050F212AA6A050EA96E72
:1005900009C0A8FFA69CA69EA684F2CF00F0F29EFA
:1005A000550EA76EAA0EA76EA682A6B2FED7A69477
:1005B0000050F2120ED000010F50700802E129D74E
:1005C00007D00F50640804E1640ED5DE9EBAFED752
:1005D0000F01010E016E04D00001000E016E0F012B
:1005E0000001A4EF03F0126A116A106A0F6A146A1C
:1005F000800E136E14C003F01350D8B41406130603
:1006000003100FE0350E006E002EFED7C282C2B27C
:10061000FED7C3500F26C4501022000E1122122202
:10062000E9D710C00FF011C010F012C011F0126A1B
:100630000FC001F010C002F0A5EF03F0EACF17F0F1
:10064000E9CF16F01038F009126E1226E20F136E81
:10065000320F156E10500F0B132613261526E90FB7
:10066000146E142614260F380F0B14261526143674
:100670001536151E15360F500F0B15261236070EA0
:10068000116E0A0E14061526FDE313061426FDE36B
:1006900012061326FDE311061226FDE3EA6A110E87
:1006A000E96E070E1614169CE926150EE95CD8B4FF
:1006B000168CEF50006E08E116BC06D016B80CD0B0
:1006C00016B602D0200E03D016861698300E0026DD
:1006D00000509EA8FED7AD6EEE5016ACE6D7B4EF34
:1006E00003F0F86AD09E056A180E046E0C0E196E9F
:1006F000E40E186E1B6A1A6AEA6AE96A700ED36E13
:10070000400E9B6ED350B886400EAF6E030EB06E97
:10071000A60EAC6E900EAB6EC150C00B0F09C16E31
:10072000070EB46E20D5010E126ECADC010E126ED9
:10073000C0DC126AC5DC040E0F6EFA0E106E00DD0E
:100740000F2EFBD703D694D64ED702C00EF001C0B1
:100750000DF03A0E9EA8FED7AD6E100EE96E0EC0DB
:0C07600010F00DC00FF06AD7EED70300B8
:020000040030CA
:0E00000000C81E1E0086B1000FC00FE00F40AA
:00000001FF
;PIC18F4680
;CRC=32CC  CREATED="25-nov-16 07:18"
